:100000000C94AF150C94E0150C94E0150C94E015CD
:100010000C94E0150C94E0150C94E0150C94E0158C
:100020000C94E0150C94E0150C94E0150C94E0157C
:100030000C94E0150C94E0150C94E0150C94E0156C
:100040000C94E0150C94083D0C94E0150C94E0150C
:100050000C94E0150C94E0150C9460590C94468FA8
:100060000C94E0150C9457B50C94E0150C94E01525
:100070000C94E0150C94E0150C94E0150C94E0152C
:100080000C94E0150C94E0150C94E0150C94E0151C
:100090000C94E0150C94E0150C94E0150C94E0150C
:1000A0000C94E0150C94E0150C94E0150C94E015FC
:1000B0000C94E0150C94E0150C94E0150C94E015EC
:1000C0000C94E0150C94E0150C94E0150C94E015DC
:1000D0000C94E0150C94E0150C94E0150C94E015CC
:1000E0000C94E015F18CF48CE38CE78CED8C2B8D6B
:1000F000F88CFC8C028D068D0A8D108D148D188D58
:100100002B8D1E8D228D268D628E678E6C8E768E47
:10011000808EF98E8A8E928E9A8EA48EAE8EB88E36
:10012000C78ED18EF98EDB8EE58EEF8EA1AE19AD26
:1001300052ADDDAE52AD52AD52AD52AD52AD52AD3B
:1001400052AD52AD52AD52AD52AD52AD52AD52ADB7
:1001500052AD52AD52AD52AD52AD52AD52AD52ADA7
:1001600052AD52AD52AD52ADD7AE52AD52AD52AD11
:1001700052AD52AD52AD52AD52ADB0AE52AD52AD28
:1001800052AD52AD52AD52AD52AD52AD52AD52AD77
:10019000F4AE4FAD084AD73B3BCE016E84BCBFFDE9
:1001A000C12F3D6C74319ABD56833DDA3D00C77F47
:1001B00011BED9E4BB4C3E916BAAAABE00000080E0
:1001C0003F05A84CCDB2D44EB93836A9020C50B96F
:1001D000918688083CA6AAAA2ABE000000803F009B
:1001E0004E414E494E495459494E46CDCCCC3D0A1C
:1001F000D7233C17B7D13877CC2B329595E6241FFF
:10020000B14F0A000020410000C84200401C4620B7
:10021000BCBE4CCA1B0E5AAEC59D74434F4D4D55C6
:100220004E49434154494F4E0044525952554E0095
:100230004552524F525300494E464F004543484F96
:100240000047322F47332062616420706172616D14
:1002500065746572730A00536C6565702E2E2E00EE
:10026000436C69636B20746F20726573756D652EC6
:100270002E2E004E6F206D6F76652E00456E642029
:1002800066696C65206C6973740A00426567696E03
:100290002066696C65206C6973740A00286E6F2093
:1002A00066696C6529005344207072696E74696ECA
:1002B00067206279746520004E6F7420534420706B
:1002C00072696E74696E670A0043757272656E7446
:1002D0002066696C653A200046696C652064656C2F
:1002E000657465643A0044656C6574696F6E206678
:1002F00061696C65642C2046696C653A200025694B
:10030000730025696D2025697300256968202569BA
:100310006D20256973002569642025696820256999
:100320006D20256973002569792025696420256978
:10033000682025696D20256973005072696E7420EC
:1003400074696D653A20003C023702300229021BB5
:10035000026F66660044454255473A004B494C4C93
:1003600045442E20004D3131332053006F6B002067
:10037000573A0042656420636F6F6C696E672E2E7A
:100380002E004265642068656174696E672E2E2EAA
:10039000003344205072696E746572204F66662E79
:1003A000002C20002C2000544845524D414C5F50F9
:1003B000524F54454354494F4E004155544F5245B6
:1003C000504F52545F53445F53544154555300456A
:1003D0004D455247454E43595F5041525345520097
:1003E000434153455F4C494748545F42524947484F
:1003F000544E45535300544F47474C455F4C494773
:1004000048545300534F4654574152455F504F573D
:100410004552004255494C445F50455243454E5465
:10042000004C4556454C494E475F44415441005AA3
:100430005F50524F4245004155544F4C4556454C34
:10044000005052494E545F4A4F420050524F47525B
:10045000455353004155544F5245504F52545F54E9
:10046000454D5000564F4C554D455452494300455B
:100470004550524F4D0053455249414C5F584F4EE5
:100480005F584F4646004649524D574152455F4ED0
:10049000414D453A4D61726C696E20312E312E39D5
:1004A00020284769746875622920534F5552434587
:1004B0005F434F44455F55524C3A68747470733AC9
:1004C0002F2F6769746875622E636F6D2F4D61728F
:1004D0006C696E4669726D776172652F4D61726CE1
:1004E000696E2050524F544F434F4C5F5645525304
:1004F000494F4E3A312E30204D414348494E455FD9
:10050000545950453A3344205072696E74657220D4
:1005100045585452554445525F434F554E543A3115
:1005200020555549443A63656465326132662D341D
:100530003161322D343734382D396231322D633503
:10054000356336326633363766660A002F2F200051
:100550004D31343520533C696E6465783E206F75AB
:1005600074206F662072616E67652028302D3129F6
:100570000A00205400205200416363656C6572617B
:1005800074696F6E3A205000205A002059005800BC
:1005900020204D61783A2000205A00205900580050
:1005A00020204D696E3A20004F6E20004F66660095
:1005B000536F667420656E6473746F70733A2000B5
:1005C00020466C6F773A2000000136372603FFFF84
:1005D000FF353C3D380EFFFFFF312E303E12FFFF4E
:1005E000FFFF28FF0C0809FFFFFF1A1C18FFFF2A56
:1005F00008440AFF4320643A0020693A0020703A18
:1006000000496E76616C6964206578747275646502
:10061000720A0043290A0061626C656420286D69D2
:100620006E2074656D702000436F6C642065787473
:1006300072756465732061726520004E6F2063617E
:100640007365206C696768740A00454550524F4DC8
:100650002064697361626C65640A00416374697641
:10066000652045787472756465723A2000496E762B
:10067000616C69642065787472756465720A004DF6
:100680003234004D323320257300556E6B6E6F7718
:100690006E20636F6D6D616E643A20220020746F6E
:1006A0006F206C6F6E6720657874727573696F6EFA
:1006B0002070726576656E7465640A0020636F6CE5
:1006C0006420657874727573696F6E2070726576D8
:1006D000656E7465640A0024F4D43050C38E20C261
:1006E000A24017828B7011127A910D816CD90AA8E1
:1006F00061E108C7586607615143061E4B5D05C19D
:1007000045A7041A411104093D980371393103408A
:1007100036DB0265339102D4305402802E1D026311
:100720002CEE01752AC501B028A001102781018F88
:100730002564012B244B01E0223401AC211F018DE3
:10074000200D01801FFC00841EED00971DDF00B806
:100750001CD200E61BC600201BBC00641AB200B20B
:1007600019A8000A19A0006A189900D11791004031
:10077000178B00B516840031167E00B31579003A48
:10078000157300C7146F0058146A00EE13660088D2
:1007900013630025135E00C7125B006C125700152F
:1007A000125400C111510070114F0021114B00D69D
:1007B0001049008D1047004610440002104200C04E
:1007C0000F4000800F3E00420F3C00060F3B00CB65
:1007D0000E3800930E37005C0E3500270E3400F300
:1007E0000D3200C10D3100900D3000600D2E003231
:1007F0000D2D00050D2C00D90C2B00AE0C29008509
:100800000C29005C0C2700350C27000E0C2600E894
:100810000B2400C40B2400A00B23007D0B23005AE3
:100820000B2100390B2100180B2000F80A1F00D9FA
:100830000A1E00BB0A1E009D0A1D00800A1D0063DF
:100840000A1C00470A1B002C0A1B00110A1A00F799
:10085000091A00DD091900C4091900AB0919009231
:100860000917007B091800630917004C09160036A8
:10087000091600200916000A091500F5081500E000
:10088000081400CC081400B8081400A40814009040
:100890000813007D0812006B081300580812004668
:1008A0000812003408110023081100120811000179
:1008B000081100F0071000E0071000D0071000C07A
:1008C000071000B0070F00A107100091070E00836A
:1008D000070F0074070F0065070E0057070E004949
:1008E000070E003B070D002E070E0020070D00131A
:1008F000070D0006070D00F9060C00ED060D00E0DF
:10090000060C00D4060C00C8060C00BC060C00B097
:10091000060C00A4060B0099060C008D060B008245
:10092000060B0077060B006C060B0061060A0057E9
:10093000060B004C060A0042060A0038060A002E82
:10094000060A0024060A001A060A00100609000713
:10095000060A00FD050900F4050900EB050900E29F
:10096000050900D9050900D0050900C7050900BE21
:10097000050900B5050800AD050800A50509009C9E
:10098000050800940508008C050800840508007C13
:10099000050800740508006C050700650508005D82
:1009A000050700560508004E0507004705070040EB
:1009B00005080038050700310507002A0507002350
:1009C0000507001C050600160507000F05070008AF
:1009D00005060002050700FB040600F5040700EE0B
:1009E000040600E8040600E2040700DB040600D564
:1009F000040600CF040600C9040600C3040600BDB7
:100A0000040600B7040600B1040500AC040600A605
:100A1000040600A00405009B040600950405009050
:100A20000406008A04050085040500800406007A97
:100A300004050075040500700405006B04050066DC
:100A4000040500610405005C04050057040500521C
:100A50000405004D04050048040500430405003E5C
:100A60000404003A04050035040500300404002C99
:100A700004050027040400230405001E0404001AD2
:100A800004040016040500110404000D0404000908
:100A90000405000404040000040400FC030400F83E
:100AA000030400F4030400F0030400EC030400E872
:100AB000030400E4030400E0030400DC030400D8A2
:100AC000030400D4030400D0030400CC030400C8D2
:100AD000030300C503030024F404D9201BC40C5CE9
:100AE0000E9804C4095F0265077101F405F900FB63
:100AF00004B30048048700C103690058035500038C
:100B0000034500BE023A008402310053022A002944
:100B100002250004022000E4011C00C8011900AFF6
:100B20000117009801140084011300710110006185
:100B300001100051010E0043010D0036010B002B86
:100B4000010B0020010B00150109000C0109000335
:100B5000010800FB000800F3000800EB000700E4B8
:100B6000000600DE000600D8000600D2000600CC19
:100B7000000500C7000500C2000500BD000400B963
:100B8000000400B5000400B1000400AD000400A999
:100B9000000400A5000300A20003009F0004009BC6
:100BA00000030098000300950002009300030090EA
:100BB0000003008D0002008B000300880002008605
:100BC00000020084000300810002007F0002007D1B
:100BD0000002007B0002007900020077000100762D
:100BE0000002007400020072000100710002006F38
:100BF0000002006D0001006C0002006A0001006943
:100C00000002006700010066000100650001006449
:100C10000002006200010061000100600001005F4D
:100C20000002005D0001005C0001005B0001005A51
:100C30000001005900010058000100570001005652
:100C40000001005500010054000100530000005352
:100C50000001005200010051000100500001004F4E
:100C60000001004E0000004E0001004D0001004C4C
:100C70000001004B0000004B0001004A0001004948
:100C80000001004800000048000100470001004644
:100C9000000000460001004500000045000100443E
:100CA0000001004300000043000100420000004238
:100CB0000001004100000041000100400001003F30
:100CC0000000003F0001003E0000003E0001003D2A
:100CD0000000003D0001003C0000003C0000003C22
:100CE0000001003B0000003B0001003A0000003A18
:100CF0000001003900000039000100380000003810
:100D00000000003800010037000000370001003605
:100D100000000036000000360001003500000035FC
:100D200000000035000100340000003400000034F1
:100D300000010033000000330000003300010032E6
:100D400000000032000000320001003100000031DC
:100D500000000031000100300000003000000030D1
:100D60000001002F0000002F0000002F0000002FC6
:100D70000001002E0000002E0000002E0001002DBA
:100D80000000002D0000002D0000002D0001002CAF
:100D90000000002C0000002C0000002C0001002BA3
:100DA0000000002B0000002B0000002B0001002A97
:100DB0000000002A0000002A0000002A000100298B
:100DC000000000290000002900000029000000297F
:100DD0000001002800000028000000280000002872
:100DE0000000002800010027000000270000002765
:100DF0000000002700000027000100260000002658
:100E0000000000260000002600000026000100254A
:100E1000000000250000002500000025000000253E
:100E20000000002500010024000000240000002430
:100E30000000002400000024000100230000002323
:100E40000000002300000023000000230000002316
:100E50000000002300010022000000220000002208
:100E600000000022000000220000002200010021FA
:100E700000000021000000210000002100000021EE
:100E800000000021000000210001002000000020DF
:100E900000000020000000200000002000000020D2
:100EA00000000020000000200001001F0000001FC3
:100EB0000000001F0000001F0000001F0000001FB6
:100EC0000000001F0001001E0000001E0000001EA8
:100ED0000000001E000000043700001E2900005121
:100EE0001B00005810000010090000CC040000781E
:100EF000020000410100006F6B0020746F6F206CD6
:100F00006F6E6720657874727573696F6E2070728A
:100F10006576656E7465640A0020636F6C64206595
:100F20007874727573696F6E2070726576656E7411
:100F300065640A00627573793A207061757365643F
:100F400020666F7220696E7075740A00627573791D
:100F50003A2070617573656420666F7220757365E1
:100F6000720A00627573793A2070726F63657373E9
:100F7000696E670A004B494C4C45442E20004B4992
:100F80004C4C20636175736564206279204B494C39
:100F90004C20627574746F6E2F70696E0A004B4935
:100FA0004C4C45442E20004B494C4C2063617573DA
:100FB000656420627920746F6F206D7563682069A5
:100FC0006E6163746976652074696D65202D206398
:100FD000757272656E7420636F6D6D616E643A2018
:100FE00000506C65617365207265736574005052C2
:100FF000494E5445522048414C5445440050726972
:101000006E7465722068616C7465642E206B696C07
:101010006C28292063616C6C6564210A00656E711F
:1010200075657565696E672022000000000000008C
:10103000000000000000000048420000484200009C
:101040008040000000005761726E696E673A204868
:101050006F6D696E672042756D70204469766973A3
:101060006F72203C20310A000202040000A0400000
:1010700000A040000000400000484300004843003A
:10108000004843FFFFFF25753A25303275002530B3
:1010900032753A2530327500257564202530327559
:1010A0003A2530327500202020202020005A005997
:1010B000002020202000580009200000000000002F
:1010C000000000000000003FFFF0000000000000F2
:1010D0000000000000003800700000000000000068
:1010E000000000000030FC300000000000000000A4
:1010F0000000000020FC10000000000000000000C4
:101100000000002078100000000000000000000037
:10111000000020301000000000000000000000006F
:10112000002C00D03FC00000000000000020820022
:101130002E31D07FE0000000000000001041002FA1
:101140007BD07FE0000000000000001041002F7BFA
:10115000D07FE0000000000000002082002E31D08F
:101160003FC0000000000000004104002C00D03F00
:10117000C0000000000000008208002030107FE066
:10118000000000000000008208002078107FE000CE
:1011900000000000000041040020FC107FE000007F
:1011A000000000000020820030FC301F80000000A2
:1011B000000000000000003800700F000000000078
:1011C000000000FFFFC03FFFF0060000000000002D
:1011D0000000FFFFC0000000000000000000000051
:1011E000000000003FFFF0000000000000000000D1
:1011F0000000003800700000000000000000000047
:1012000000003186300000000000000000000000F7
:101210000023871000000000000000000000000014
:101220002787900000000000000000000000002F51
:1012300087D00000000000000000000000002F0325
:10124000D03FC000000000000000208200203010CD
:101250007FE0000000000000001041002078107FB7
:10126000E0000000000000001041002078107FE046
:10127000000000000000002082002030103FC0006D
:101280000000000000004104002F03D03FC0000018
:1012900000000000008208002F87D07FE0000000DF
:1012A000000000008208002787907FE00000000017
:1012B0000000004104002387107FE00000000000D0
:1012C00000002082003186301F80000000000000F6
:1012D000000000003800700F000000000000000057
:1012E000FFFFC03FFFF0060000000000000000FF0D
:1012F000FFC00000003344205072696E7465722094
:1013000052656164792E005072696E74696E672E41
:101310002E2E005072696E742070617573656400C2
:101320005072696E742061626F72746564005072ED
:10133000696E742066726F6D2053440053746F7031
:10134000207072696E7400526573756D65207072DD
:10135000696E74004E6F20534420636172640050C4
:1013600061757365207072696E7400436F6E74727C
:101370006F6C00507265706172650054756E650027
:10138000496E666F2073637265656E006265640AFC
:10139000002C2073797374656D2073746F707065A1
:1013A0006421204865617465725F49443A200042B7
:1013B00065642068656174696E67206661696C6543
:1013C000640048656174696E67206661696C656474
:1013D0000045312048656174696E67206661696CFB
:1013E00065640048656174696E67206661696C6553
:1013F000640070012C0190012701B0012201C0019D
:101400001D01F00118011002130130020E016002EB
:10141000090190020401C002FF000003FA0040032A
:10142000F5008003F000D003EB002004E600700418
:10143000E100E004DC004005D700C005D200400612
:10144000CD00D006C8008007C3003008BE00F008F9
:10145000B900C009B400B00AAF00B00BAA00D00CAC
:10146000A500000EA000500F9B00C0109600501267
:10147000910000148C00C0158700B0178200B019CD
:101480007D00D01B7800001E730040206E0090226B
:101490006900F024640040275F0090295A00E02B87
:1014A0005500102E500020304B0010324600E03323
:1014B000410090353C001037370070383200A039B9
:1014C0002D00B03A2800A03B2300603C1E00103DD8
:1014D0001900903D1400103E0F00703E0A00C03EFF
:1014E0000500003F0000403FFBFF803FF6FFC03F8C
:1014F000F1FF453120544845524D414C2052554E44
:10150000415741590042454420544845524D414CB1
:101510002052554E4157415900546865726D616CB7
:101520002052756E61776179004531204572723ABB
:10153000204D415854454D50004572723A204D415E
:101540005854454D5020424544004D415854454D56
:101550005020747269676765726564004531204583
:1015600072723A204D494E54454D50004572723AC0
:10157000204D494E54454D5020424544004D494E62
:1015800054454D5020747269676765726564004DFB
:10159000383420582059205A204500202F0020425E
:1015A000403A0020403A004D6F766520302E316D74
:1015B0006D004D6F766520316D6D004D6F76652045
:1015C00031306D6D004D6F7665206178697300452F
:1015D00078747275646572004D6F7665205A004D9F
:1015E0006F76652059004D6F7665205800457874F8
:1015F0007275646572004D6F7665205A004D6F7686
:10160000652059004D6F76652058005072657061F5
:10161000726500526573746F7265206661696C73E0
:101620006166650046696C616D656E74004D6F742E
:10163000696F6E0054656D706572617475726500D6
:101640004D61696E00507265686561742041425356
:1016500020636F6E66005072656865617420504C3F
:101660004120636F6E66005049442D440050494448
:101670002D44005049442D49005049442D49005003
:1016800049442D50005049442D5000200820466107
:1016900063740020082046616374002008204D61B7
:1016A00078002008204D6178002008204D617800E6
:1016B0002008204D696E002008204D696E0020082A
:1016C000204D696E004F6666004F6E2000417574B4
:1016D0006F74656D700046616E207370656564009F
:1016E00046616E2073706565640046616E2073709C
:1016F000656564004265640042656400426564009B
:101700004E6F7A7A6C65004E6F7A7A6C65004E6F18
:101710007A7A6C6500436F6E74726F6C0042656418
:101720000042656400426564004E6F7A7A6C650021
:101730004E6F7A7A6C65004E6F7A7A6C65004661FE
:101740006E2073706565640046616E207370656518
:10175000640046616E2073706565640054656D7049
:10176000657261747572650057726974696E67207D
:10177000746F2066696C653A20006F70656E206634
:1017800061696C65642C2046696C653A20006F7055
:10179000656E206661696C65642C2046696C653AEB
:1017A000200046696C652073656C65637465640A26
:1017B000002053697A653A200046696C65206F7095
:1017C000656E65643A20002066696C653A200064A5
:1017D0006F696E67006672657368004E6F772000F0
:1017E000454E4420535542524F5554494E450A00E8
:1017F0002220706F73002220706172656E743A222D
:1018000000535542524F5554494E452043414C4C8C
:10181000207461726765743A22004B494C4C454410
:101820002E2000747279696E6720746F2063616C7A
:101830006C207375622D67636F64652066696C65E3
:1018400073207769746820746F6F206D616E7920E2
:101850006C6576656C732E204D4158206C657665FD
:101860006C2069733A004572726F723A006F70654E
:101870006E206661696C65642C2046696C653A204F
:101880000043616E6E6F74206F70656E20737562B9
:1018900064697220006563686F3A0048617264632E
:1018A0006F6465642044656661756C74205365746B
:1018B00074696E6773204C6F616465640A00B80BCD
:1018C0000000B80B000028000000A00F000000007E
:1018D000C8420000C842000000400000C8410000AB
:1018E000BB420000BB42000020459A99EC432028EF
:1018F0006D6D290020440020490020204D333031F7
:101900002050005049442073657474696E67733ABF
:101910000A0020460020420020480020204D31349B
:10192000352053004D6174657269616C2068656192
:1019300074757020706172616D65746572733A0AB6
:1019400000205A0020590020204D32303620580007
:10195000486F6D65206F66667365743A0A002045AE
:1019600000205A0020590020580020540020530025
:1019700020204D32303520510020453C6D61785F8C
:10198000655F6A65726B3E0020583C6D61785F78D8
:101990005F6A65726B3E20593C6D61785F795F6A62
:1019A00065726B3E205A3C6D61785F7A5F6A657242
:1019B0006B3E00416476616E6365643A20513C6D14
:1019C000696E5F7365676D656E745F74696D655F81
:1019D00075733E20533C6D696E5F66656564726128
:1019E00074653E20543C6D696E5F74726176656CFF
:1019F0005F66656564726174653E00205400205224
:101A00000020204D323034205000416363656C6506
:101A1000726174696F6E2028756E6974732F7332EA
:101A2000293A20503C7072696E745F616363656C23
:101A30003E20523C726574726163745F61636365DA
:101A40006C3E20543C74726176656C5F61636365C3
:101A50006C3E0A00204500205A0020590020204DED
:101A60003230312058004D6178696D756D204163C9
:101A700063656C65726174696F6E2028756E697438
:101A8000732F7332293A0A00204500205A0020594A
:101A90000020204D3230332058004D6178696D753B
:101AA0006D206665656472617465732028756E6962
:101AB00074732F73293A0A00204500205A002059D8
:101AC0000020204D39322058005374657073207007
:101AD000657220756E69743A0A0020204D323030EC
:101AE0002044300A0020204D323030204400204471
:101AF000697361626C65640A0046696C616D656E4C
:101B0000742073657474696E67733A0020204D31D8
:101B100034392043203B20556E69747320696E2050
:101B200043656C736975730A0020204732312020A9
:101B300020203B00545249474745524544006F70AE
:101B4000656E003A20007A5F6D696E00795F6D699D
:101B50006E00785F6D696E005265706F7274696EA9
:101B60006720656E6473746F70207374617475732D
:101B70000A007C3C3E5E2B3D3F2F5B5D3B2C2A22C6
:101B80005C0020496E76616C6964206578747275BA
:101B900064657220000000000000000000000000EA
:101BA00000000048430000484300004843486F6D70
:101BB000696E67206661696C65640050726F746558
:101BC000637465642050696E0A0020573A0045200E
:101BD000436F6F6C696E672E2E2E0045204865613D
:101BE00074696E672E2E2E00205A3A0020593A0052
:101BF00020436F756E7420583A0020453A00205AF1
:101C00003A0020593A00583A003A004361703A00CD
:101C100023646566696E652044454641554C545FB2
:101C20004B64200023646566696E65204445464127
:101C3000554C545F4B69200023646566696E6520CE
:101C400044454641554C545F4B7020005049442058
:101C50004175746F74756E652066696E6973686529
:101C600064212050757420746865206C6173742041
:101C70004B702C204B6920616E64204B6420636F95
:101C80006E7374616E74732066726F6D2062656C22
:101C90006F7720696E746F20436F6E666967757227
:101CA0006174696F6E2E680A005049442041757452
:101CB0006F74756E65206661696C65642120746956
:101CC0006D656F75740A00453120544845524D4189
:101CD0004C2052554E4157415900546865726D6110
:101CE0006C2052756E6177617900453120486561DD
:101CF00074696E67206661696C656400486561742B
:101D0000696E67206661696C6564005049442041D2
:101D100075746F74756E65206661696C65642120E9
:101D200054656D706572617475726520746F6F2093
:101D3000686967680A00204B643A2000204B693AC2
:101D40002000204B703A20000A20436C61737369B5
:101D50006320504944200A002054753A2000204B4B
:101D6000753A2000206D61783A2000206D696E3A46
:101D7000200020643A200020626961733A200050FC
:101D80004944204175746F74756E65206661696C95
:101D9000656421204261642065787472756465729F
:101DA000206E756D6265720A005049442041757459
:101DB0006F74756E652073746172740A00486F6D7C
:101DC000652025732573257320666972737400205E
:101DD00066697273740A005A0059005800486F6DA2
:101DE0006520004F666673657473206170706C695E
:101DF0006564004572723A20546F6F2066617221EB
:101E000000546F6F206661722066726F6D2072657C
:101E1000666572656E636520706F696E740A000096
:101E2000002100240027002A002D0030003300018B
:101E3000010000040107010A01000022002500281A
:101E4000002B002E003100340002010000050108C3
:101E5000010B01000020002300260029002C002F88
:101E6000003200000100000301060109010505051B
:101E700005070508080808020202020A0A08080401
:101E8000040404010101010101010103030303032F
:101E9000030303040707070C0C0C0C0C0C0C0C02BE
:101EA00002020206060606060606060B0B0B0B0BC5
:101EB0000B0B0B01021020200808102040102040BE
:101EC00080020102010804020101020408102040FE
:101ED000808040201008040201800402018040201C
:101EE0001008040201080402010102040810204045
:101EF00080010204081020408000000A0B02090C37
:101F00000D0E08070304010000000000000000009F
:101F100000000000000000000000000000000000C1
:101F2000000000000012111000000000000000007E
:101F30000000000000000000000000000000001F82
:101F4000FFFFFFFFFFFF600000000001FF400000F7
:101F5000000000FF8000000000007F83CF00000C25
:101F6000303F87FF80000C301F867980000C000F07
:101F70008C30C7838C30E78C30CFC7CC31F38C30BA
:101F8000DCECEC33B98C30D86C6C33198C30D06C01
:101F90000C33198C30D86C0C33198C30DC6C0E3B44
:101FA000198C30CF7C079F198C30C77C038F194068
:101FB000000000000002600000000000061FFFFF9C
:101FC000FFFFFFF82020506C616E6E6572427566EF
:101FD00066657242797465733A20002046726565C1
:101FE000204D656D6F72793A2000436F6D70696C9A
:101FF00065643A204D617220313420323031390A23
:1020000000207C20417574686F723A20286E6F6ED4
:10201000652C2064656661756C7420636F6E6669FB
:1020200067290A00323031382D30382D3031002008
:102030004C61737420557064617465643A2000319A
:102040002E312E390A004D61726C696E0020536F7B
:102050006674776172652052657365740A00205753
:1020600061746368646F672052657365740A002049
:1020700042726F776E206F75742052657365740AB3
:10208000002045787465726E616C205265736574CA
:102090000A00506F77657255700A0073746172742C
:1020A0000A006175746F25692E67006572726F7220
:1020B0002077726974696E6720746F2066696C6539
:1020C0000A00456E6473746F707320256320256366
:1020D00020256320256300205A3A0020593A002029
:1020E000583A00656E6473746F7073206869743A4F
:1020F0002000446F6E6520736176696E67206669A3
:102100006C652E0A004D32390000060900FE0701F9
:10211000920321207FFF07FF07FF00000006000059
:102120000107070602008080808080008003020291
:10213000060105A0A00507070600005050F850F85A
:1021400050500507070600002078A07028F02005F1
:102150000707060000C0C8102040981805070706AA
:1021600000006090A040A89068020303060104C02C
:102170004080030707060100204080808040200344
:102180000707060100804020202040800505050645
:10219000000120A870A8200505050600012020F8F0
:1021A00020200203030602FFC04080050101060053
:1021B00003F8020202060200C0C005050506000180
:1021C000081020408005070706000070888888886E
:1021D000887003070706010040C040404040E0050A
:1021E0000707060000708808708080F8050707065A
:1021F0000000F81020100808F0050707060000107E
:10220000305090F81010050707060000F880F0081D
:10221000088870050707060000708080F0888870C5
:10222000050707060000F8081020202020050707F2
:10223000060000708888708888700507070600000F
:1022400070888878080870020505060200C0C00082
:10225000C0C00206060602FFC0C000C040800407DE
:1022600007060000102040804020100503030600F0
:1022700002F800F804070706010080402010204003
:102280008005070706000070880810200020050759
:102290000706000070880868A8A8700507070600F0
:1022A00000708888F8888888050707060000F0888D
:1022B00088F08888F0050707060000708880808015
:1022C0008870050707060000F08888888888F00570
:1022D0000707060000F88080F08080F805070706F1
:1022E0000000F88080F080808005070706000070FD
:1022F0008880B8888870050707060000888888F8F5
:10230000888888010707060200808080808080809E
:102310000507070600003810101010906005070729
:102320000600008890A0C0A090880507070600005E
:10233000808080808080F805070706000088D8A884
:10234000888888880507070600008888C8A89888B4
:102350008805070706000070888888888870050748
:1023600007060000F08888F08080800507070600D7
:102370000070888888A89068050707060000F08824
:1023800088F0A09088050707060000788080700814
:1023900008F0050707060000F8202020202020056F
:1023A0000707060000888888888888700507070660
:1023B0000000888888888850200507070600008864
:1023C00088888888A850050707060000888850205C
:1023D000508888050707060000888888502020203C
:1023E000050707060000F80810204080F8030707DB
:1023F000060100E08080808080E005050506000180
:102400008040201008030707060100E0202020205C
:1024100020E00503030600042050880501010600A2
:1024200000F80202020602058040050505060000CC
:1024300070087888780507070600008080B0C88893
:1024400088F0050505060000708080887005070784
:1024500006000008086898888878050505060000C9
:102460007088F880700507070600003048E040409B
:1024700040400506060600FF70888878087005074A
:10248000070600008080B0C8888888010707060218
:1024900000800080808080800308080601FF200003
:1024A00020202020A040040707060000808090A084
:1024B000C0A090030707060100C04040404040E034
:1024C000050505060000D0A8A8A8A8050505060072
:1024D00000B0C888888805050506000070888888CF
:1024E000700506060600FFF08888F0808005060665
:1024F0000600FF788888780808050505060000B002
:10250000C880808005050506000070807008F00412
:1025100007070600004040E0404040300505050642
:102520000000888888986805050506000088888866
:1025300050200505050600008888A8A85005050557
:1025400006000088502050880506060600FF88888F
:1025500088780870050505060000F8102040F8038B
:102560000707060100204040804040200107070681
:102570000200808080808080800307070601008041
:1025800040402040408005020206000268900000A2
:1025900000060000436172642072656D6F766564A9
:1025A000004361726420696E7365727465640056DD
:1025B000652D6A65726B0056652D6A65726B0056F3
:1025C000652D6A65726B00567A2D6A65726B0056CE
:1025D0007A2D6A65726B0056792D6A65726B0056AA
:1025E000792D6A65726B0056792D6A65726B00569B
:1025F000782D6A65726B0056782D6A65726B00568D
:10260000782D6A65726B004D6F74696F6E0045734B
:10261000746570732F6D6D004573746570732F6DE5
:102620006D005A73746570732F6D6D005A73746505
:1026300070732F6D6D005973746570732F6D6D001D
:102640005973746570732F6D6D0058737465707372
:102650002F6D6D005873746570732F6D6D004D6F25
:1026600074696F6E0053746570732F6D6D004A65E9
:10267000726B00416363656C65726174696F6E00B3
:1026800056656C6F6369747900436F6E74726F6C1A
:102690000046696C2E204469612E0046696C2E202C
:1026A0004469612E004F6666004F6E200045206928
:1026B0006E206D6D3300436F6E74726F6C004361FA
:1026C0006E6E6F7420656E746572207375626469D6
:1026D000723A2000022E2E004D61696E00466C6F2A
:1026E0007700466C6F7700466C6F770046616E200E
:1026F00073706565640046616E2073706565640083
:1027000046616E20737065656400426564004265D1
:102710006400426564004E6F7A7A6C65004E6F7A91
:102720007A6C65004E6F7A7A6C65005370656564EB
:10273000005370656564005370656564004D6169A0
:102740006E005072656865617420504C4120456E82
:1027500064005072656865617420504C4120426588
:1027600064005072656865617420504C410050727D
:1027700065706172650050726568656174204142E0
:102780005320456E64005072656865617420414253
:10279000532042656400507265686561742041424F
:1027A000530050726570617265004D3432380050CC
:1027B00072656865617420504C4100436F6F6C64B2
:1027C0006F776E00507265686561742041425300F6
:1027D00044697361626C65207374657070657273AF
:1027E000004D38340053657420686F6D65206F6646
:1027F0006673657473004175746F20686F6D650052
:10280000473238004D6F76652061786973004D61FD
:10281000696E004D6F76652058004D6F76652059C2
:10282000004D6F7665205A00457874727564657244
:102830000000060900FE000000000001090008FE7B
:10284000000005080806000040F0C8888898781045
:10285000050808060000C0F88888888888F80505FB
:10286000050600012030F830200508080600002089
:1028700070F820202020E00509090600FF2070A83C
:10288000A8B8888870200509090600FFE080C0B05C
:10289000A8283028280509090600FFF8A888888894
:1028A0008888A8F8050A0A0600FE20505050508873
:1028B000A8A8887003030306000340A0404B494CBE
:1028C0004C45442E200053544F505045442E200078
:1028D0005072696E7465722073746F7070656420D5
:1028E00064756520746F206572726F72732E204656
:1028F000697820746865206572726F7220616E64F9
:1029000020757365204D39393920746F20726573D5
:10291000746172742E202854656D706572617475CF
:1029200072652069732072657365742E2053657417
:1029300020697420616674657220726573746172B7
:1029400074696E67290A004E6F20436865636B7374
:10295000756D2077697468206C696E65206E756D81
:102960006265722C204C617374204C696E653A204C
:10297000004E6F20436865636B73756D20776974D3
:1029800068206C696E65206E756D6265722C204CD6
:10299000617374204C696E653A2000636865636BEF
:1029A00073756D206D69736D617463682C204C6163
:1029B0007374204C696E653A20004C696E65204E38
:1029C000756D626572206973206E6F74204C61733F
:1029D00074204C696E65204E756D6265722B312CCA
:1029E000204C617374204C696E653A20004D313182
:1029F00030004D33310053442072656164206572AC
:102A0000726F720A00446F6E65207072696E74692D
:102A10006E672066696C650A005654726176206D97
:102A2000696E005654726176206D696E005654725C
:102A30006176206D696E00566D696E00566D696E27
:102A400000566D696E00566D6178204500566D61C7
:102A500078204500566D6178204500566D617820DC
:102A60005A00566D6178205A00566D6178205A00E0
:102A7000566D6178205900566D6178205900566D69
:102A80006178205900566D6178205800566D617844
:102A9000205800566D61782058004D6F74696F6E34
:102AA00000416D6178204500416D6178204500410D
:102AB0006D6178205A00416D6178205A00416D6146
:102AC00078205900416D6178205900416D6178206E
:102AD0005800416D6178205800412D74726176650F
:102AE0006C00412D74726176656C00412D726574C5
:102AF0007261637400412D72657472616374004188
:102B00006363656C00416363656C004D6F74696F4E
:102B10006E0053442063617264206F6B0A006F7013
:102B2000656E526F6F74206661696C65640A007629
:102B30006F6C756D652E696E6974206661696C6570
:102B4000640A00534420696E6974206661696C0AE6
:102B500000526573656E643A2000E5C175C11124A9
:102B60001FBECFEFD1E2DEBFCDBF00E00CBF12E051
:102B7000A0E0B2E0E2ECFCEA01E00BBF02C007908B
:102B80000D92AE3CB107D9F723E1AEECB2E001C043
:102B90001D92AC30B207E1F715E1CEEAD5E100E0D5
:102BA00006C021970109802FFE010E94B8D5CD3AB9
:102BB000D10780E00807A9F70E94AAC20C9450D65A
:102BC0000C9400002F923F924F925F926F927F92EF
:102BD0008F929F92AF92BF92CF92DF92EF92FF922D
:102BE0000F931F93CF93DF93CDB7DEB7CF55D109A6
:102BF0000FB6F894DEBF0FBECDBF21E02093A00832
:102C0000809183128D3409F472C6843511F40C94CA
:102C1000D029873411F00C94142A2090811230901E
:102C2000821234E02316310409F449C54CF437FC10
:102C30005AC68091190252E0251631047CF529C04C
:102C40008AE52816310409F48FC534F4ACE12A165C
:102C5000310409F472C547C6BBE52B16310409F4EB
:102C600087C5ECE52E16310409F03DC643E5242E58
:102C700042E0342E5EEAE52E58E0F52EADECBCE0E5
:102C8000BDA7ACA76AE9C62E6EE0D62E00E010E024
:102C9000AFC581110C941B2A0C94162A882311F4B9
:102CA0000C94162A0E94608782E50E94AAB18823AC
:102CB00009F436C10E942EB14B015C0120E030E0E6
:102CC000A9010E949DCE882309F456C12091CD0C04
:102CD0003091CE0C4091CF0C5091D00C2CA73DA739
:102CE0004EA75FA78091D10C9091D20CA091D30CEC
:102CF000B091D40C88AB99ABAAABBBAB2091BA080E
:102D00003091BB084091BC085091BD082CAF3DAF3D
:102D10004EAF5FAF8091BE089091BF08A091C008F0
:102D2000B091C10888AF99AFAAAFBBAF6CA57DA524
:102D30008EA59FA50E949DCE81110DC028AD39ADF5
:102D40004AAD5BAD68A979A98AA99BA90E949DCECD
:102D5000882309F411C111E092E02916310409F029
:102D600010E020E030E0A901C501B4010E949DCE31
:102D7000881F8827881F181759F020E030E040E8A6
:102D80005FEB28962CAF3DAF4EAF5FAF28970AC0E0
:102D900080E090E0A0E8BFE328968CAF9DAFAEAF97
:102DA000BFAF28972CA53DA54EA55FA56CAD7DAD09
:102DB0008EAD9FAD0E94B0D224966CAF7DAF8EAF2A
:102DC0009FAF249728A939A94AA95BA968AD79AD15
:102DD0008AAD9BAD0E94B0D26B017C0124962CADD4
:102DE0003DAD4EAD5FAD2497CA01B9010E9402CF3F
:102DF0002B013C01A7019601C701B6010E9402CF39
:102E00009B01AC01C301B2010E94B1D20E941CD54A
:102E10006CAB7DAB8EAB9FAB20E030E040E05FE37E
:102E20000E9402CF2B013C01A5019401C501B40110
:102E30000E9402CF4B015C01A3019201C301B201C8
:102E40000E9402CF9B01AC01C501B4010E94B0D227
:102E50000E941CD528962CAD3DAD4EAD5FAD289798
:102E60000E9402CF4B015C01C701B60190582CA90A
:102E70003DA94EA95FA90E948DD3A50194010E948E
:102E800002CF6B017C012CAD3DAD4EAD5FAD6CA5AD
:102E90007DA58EA59FA50E94B1D220E030E040E044
:102EA0005FE30E9402CF9B01AC01C701B6010E9403
:102EB000B1D22CA53DA54EA55FA50E94B0D26B0155
:102EC0007C0128AD39AD4AAD5BAD68A979A98AA965
:102ED0009BA90E94B1D220E030E040E05FE30E9475
:102EE00002CF2B013C012CA93DA94EA95FA9249634
:102EF0006CAD7DAD8EAD9FAD24970E948DD3A501A5
:102F000094010E9402CF9B01AC01C301B2010E9457
:102F1000B1D228A939A94AA95BA90E94B0D214C08C
:102F200089E40E94AAB1882329F00E942EB16B0186
:102F30007C0103C0C12CD12C76018AE40E94AAB185
:102F40008823E9F00E942EB16CAF7DAF8EAF9FAFAA
:102F500020E030E0A901C701B6010E949DCE811199
:102F60001BC020E030E0A9016CAD7DAD8EAD9FAD02
:102F70000E949DCE811110C0E6E6F8E18CC320E0EE
:102F800030E0A901C701B6010E949DCE8823A1F3BC
:102F90001CAE1DAE1EAE1FAEA701960150582CA749
:102FA0003DA74EA75FA78CAD9DADAEADBFADB058F0
:102FB00088AB99ABAAABBBABCA01B9010E9402CFE7
:102FC0004B015C0128A939A94AA95BA9CA01B90129
:102FD0000E9402CF9B01AC01C501B4010E94B1D295
:102FE0000E941CD564966CAF7DAF8EAF9FAF649787
:102FF0002091CD0C3091CE0C4091CF0C5091D00C43
:1030000028AF39AF4AAF5BAFA701960168AD79AD84
:103010008AAD9BAD0E94B1D228966CAF7DAF8EAFCA
:103020009FAF28978091D10C9091D20CA091D30C96
:10303000B091D40C24968CAF9DAFAEAFBFAF2497A8
:103040002CAD3DAD4EAD5FADBC01CD010E94B1D206
:1030500068966CAF7DAF8EAF9FAF68972091BA082E
:103060003091BB084091BC085091BD082C962CAF04
:103070003DAF4EAF5FAF2C9728962CAD3DAD4EAD1A
:103080005FAD28972C966CAD7DAD8EAD9FAD2C9726
:103090000E94B0D26B017C018091BE089091BF0864
:1030A000A091C008B091C10860968CAF9DAFAEAF43
:1030B000BFAF609768962CAD3DAD4EAD5FAD6897E4
:1030C000BC01CD010E94B0D24B015C012091D50C16
:1030D0003091D60C4091D70C5091D80C6C962CAFF7
:1030E0003DAF4EAF5FAF6C976091C2087091C3085F
:1030F0008091C4089091C5080E94B0D26CAB7DABA2
:103100008EAB9FABA70196016CA57DA58EA59FA553
:103110000E9402CF2B013C01A501940168A979A965
:103120008AA99BA90E9402CF9B01AC01C301B201F5
:103130000E94B1D22B013C01A50194016CA57DA593
:103140008EA59FA50E9402CF4B015C01A7019601AD
:1031500068A979A98AA99BA90E9402CF9B01AC0109
:10316000C501B4010E94B0D2A30192010E9424D3F0
:103170006B017C0120E030E0A9010E949DCE87FF19
:103180000AC02BED3FE049EC50E4C701B6010E94B4
:10319000B1D26B017C0132E02316310451F42BEDE6
:1031A0003FE049EC50E4C701B6010E94B0D26B0188
:1031B0007C0120E030E0A901C701B6010E949DCE4C
:1031C000811126C02C962CAD3DAD4EAD5FAD2C9738
:1031D00068AD79AD8AAD9BAD0E949DCE811118C0BE
:1031E00060962CAD3DAD4EAD5FAD609724966CAD55
:1031F0007DAD8EAD9FAD24970E949DCE811108C0FC
:10320000FBEDCF2EFFE0DF2EF9ECEF2EF0E4FF2EEA
:10321000A701960164966CAD7DAD8EAD9FAD6497B0
:103220000E9402CF4B015C0120E030E0A9016CA9B3
:103230007DA98EA99FA90E949DCE8823D9F0A501C2
:103240009401C501B4010E9402CF4B015C012CA97D
:103250003DA94EA95FA9CA01B9010E9402CF9B01F5
:10326000AC01C501B4010E94B1D20E941CD54B0132
:103270005C010DC020E030E0A901C501B4010E944D
:10328000D7D487FF04C0B7FAB094B7F8B0942FE64C
:1032900032E143E85AE3C501B4010E949DCE87FFA5
:1032A00002C00C94162AC501B4010E9426D40E94C3
:1032B000FAD322967FAF6EAF2297672B31F481E06D
:1032C00090E022969FAF8EAF22974090D90C5090FD
:1032D000DA0C6090DB0C7090DC0C2296AEADBFADCA
:1032E0002297BD0180E090E00E94A1CE4B015C01DD
:1032F0009B01AC01C701B6010E948DD368AF79AFC5
:103300008AAF9BAFA50194016CA97DA98EA99FA945
:103310000E948DD364966CAF7DAF8EAF9FAF6497E4
:10332000A30192016091C6087091C7088091C808F6
:103330009091C9080E94B0D2A50194010E948DD33A
:10334000A0966CAF7DAF8EAF9FAFA09728AD39AD83
:103350004AAD5BADCA01B9010E9402CF20E030E066
:1033600040E05FE30E9402CF9B01AC0160E070E0AF
:1033700080E89FE30E94B0D22C966CAF7DAF8EAFF9
:103380009FAF2C976C962CAD3DAD4EAD5FAD6C975D
:1033900029873A874B875C874D865E866F86788A59
:1033A0006091340270913502072E000C880B990B46
:1033B0000E94A3CE2091100230911102409112027E
:1033C000509113020E9402CF2AE037ED43E25CE302
:1033D0000E9402CF68A779A78AA79BA70E943A8F6D
:1033E0009B01AC0128533F4F4F4F5F4F60962CAF6E
:1033F0003DAF4EAF5FAF60974CA45DA46EA47FA4B9
:1034000022242394312C39E13CAB22964EAD5FADA2
:1034100022974215530509F41AC10E943C5E0E948E
:103420003A8FDC01CB0160962CAD3DAD4EAD5FAD6A
:103430006097821B930BA40BB50BB7FD10C00E94C5
:103440003A8F9B01AC0128533F4F4F4F5F4F60961F
:103450002CAF3DAF4EAF5FAF60970E94264B3CA9AB
:1034600031503CAB332309F441C028A939A94AA9FA
:103470005BA92C966CAD7DAD8EAD9FAD2C970E9457
:1034800002CF6B017C019201A30168AD79AD8AADD9
:103490009BAD0E9402CFA70196010E94B1D27B0191
:1034A0008C019201A3012C966CAD7DAD8EAD9FADCC
:1034B0002C970E9402CF4B015C0128A939A94AA987
:1034C0005BA968AD79AD8AAD9BAD0E9402CF9B012F
:1034D000AC01C501B4010E94B0D22B013C01C7016F
:1034E000D80188AB99ABAAABBBAB4DC0B10180E0B2
:1034F00090E00E94A1CE28AD39AD4AAD5BAD0E94EF
:1035000002CF4B015C010E948AD36B017C01C50193
:10351000B4010E9412D54B015C01A70196016CA574
:103520007DA58EA59FA50E9402CF2B013C012CAD4D
:103530003DAD4EAD5FADC501B4010E9402CFA30108
:1035400092010E94B1D22B013C01A50194016CA50E
:103550007DA58EA59FA50E9402CF4B015C012CADDD
:103560003DAD4EAD5FADC701B6010E9402CF9B01DC
:10357000AC01C501B4010E94B0D268AB79AB8AAB93
:103580009BAB49E14CAB9201A30128966CAD7DAD9C
:103590008EAD9FAD28970E94B1D269837A838B83C9
:1035A0009C8328A939A94AA95BA968966CAD7DAD11
:1035B0008EAD9FAD68970E94B1D26D837E838F835D
:1035C000988764962CAD3DAD4EAD5FAD649769852F
:1035D0007A858B859C850E94B1D269877A878B8793
:1035E0009C87A0962CAD3DAD4EAD5FADA0976D858F
:1035F0007E858F8598890E94B1D26D877E878F875F
:10360000988B80914202882321F0CE0101960E947E
:103610001249E090780E18A219A21AA21BA2CE019C
:1036200080966C018E01085D1F4F9E01235F3F4F06
:10363000AE01475F5F4FBE016B5F7F4F4F970E94A8
:103640009E2D882321F09FEF291A390ADECEE090C3
:10365000780E1CA21DA21EA21FA2DE0194966D016F
:103660008E01085D1F4F26EC38E042EC58E06EEB0F
:1036700078E08AEB98E00E949E2D80E1EAEBF8E08A
:10368000ADECBCE001900D928A95E1F70C94162AFE
:103690000E94BCB1F80184918F010F5F1F4F81110F
:1036A000F7CFE1E4F2E084918F010F5F1F4F882391
:1036B00011F40C94162A0E94BCB1F801F4CF80E5F5
:1036C0000E94AAB1882329F00E94EEB06B017C0110
:1036D00003C0C12CD12C760183E50E94AAB18823B6
:1036E00061F00E942EB120E030E04AE754E40E94ED
:1036F00002CF0E94FAD36B017C010E946870809116
:103700009209811105C060E087E592E00E948395EF
:103710000E943A8FC60ED71EE81EF91E0E943A8FED
:10372000DC01CB018C199D09AE09BF09B7FD02C0B0
:103730000C94162A0E94264BF1CF8091C00C877002
:10374000873011F00C94202A8FE40E94AAB18823BC
:1037500019F00E941FB103C08FE40E9461B1811172
:103760000C94162A0C94202A1092D2020C94162A39
:103770002093D2020C94162A0E942EB12B013C01F8
:10378000133049F0D6012D913D914D915C910E94ED
:10379000B0D22B013C01ECA5FDA5208131814281F5
:1037A0005381C301B2010E94B0D24B015C012DEBE9
:1037B00037E346E855EB0E94D7D487FD21C02DEBB7
:1037C00037E346E855E3C501B4010E949DCE1816C3
:1037D000BCF01F5FF4E0EF0EF11C2CA53DA52C5FA3
:1037E0003F4F3DA72CA734E0C30ED11C143031F15C
:1037F000F10181911F010E94AAB1882351F3BCCF2E
:10380000133051F44092D90C5092DA0C6092DB0CD8
:103810007092DC0C01E0DDCFA5019401D7016D9120
:103820007D918D919C910E94B1D2F701608371834B
:1038300082839383812F0E94B088CBCF002309F429
:103840004EC020E030E0A9016091D90C7091DA0CF3
:103850008091DB0C9091DC0C0E94B1D22091230866
:103860003091240840912508509126080E9402CFEB
:103870000E94E2D460930E0A70930F0A8093100A9C
:103880009093110A9091EC098091ED09981719F025
:103890000E944C4524C00E94687080916F00982F50
:1038A000927081FF05C080916F008D7F80936F00C3
:1038B00040910E0A50910F0A6091100A7091110AFE
:1038C0004093490850934A0860934B0870934C0802
:1038D000992329F080916F00826080936F000E948D
:1038E00096860C94162A0E94913B0C94162A80917D
:1038F0008112909182128137910509F4A4C50CF0D0
:10390000BDC08A32910509F4C9C40CF05FC088318A
:10391000910509F46EC2CCF58231910509F475C6A2
:10392000DCF497FF02C00C94CD29823091050CF491
:1039300090C1419711F00C94CD2960E083E792E0AB
:103940000E9483955F988A98809108018170809386
:10395000060112980C94162A8531910509F42EC29D
:103960003CF4449711F00C94CD29EBE8F2E0E8C167
:103970008631910509F426C2479711F00C94CD29A0
:10398000E0917F12F091801227C28C31910509F4E9
:10399000DFC264F48A31910509F434C20CF040C2EC
:1039A0001092320A0E94535B0C94162A8E319105B4
:1039B00009F4D8C214F40C94162A8F31910509F435
:1039C000B7C3809709F468C30C94CD298C35910551
:1039D00009F467C634F58135910509F4FBC58CF40B
:1039E0008C34910509F48FC48D34910509F48FC48A
:1039F0008B34910511F00C94CD290E94315B0C940D
:103A0000162A8335910509F4FCC50CF4F7C58435F5
:103A1000910509F4FAC58535910509F429C60C9478
:103A2000CD298C36910509F40BC5ACF48936910586
:103A300009F433C534F48836910509F46CC40C9448
:103A4000CD298A36910509F499C58B36910509F47B
:103A5000B1C50C94CD298E36910509F48BC40CF4B4
:103A60005CC58F36910509F498C48037910511F033
:103A70000C94CD298CE593E00E94C64A833D9105C4
:103A800009F4E0C00CF062C08139910509F494C7D3
:103A90000CF58637910509F434C764F48337910532
:103AA00009F4D4C00CF486C68537910509F41AC709
:103AB0000C94CD298837910509F473C70CF46EC7AF
:103AC0008937910509F473C78C38910509F428C525
:103AD0000C94CD29893C910511F40C94A42574F41F
:103AE0008E3B910509F436C5883C910509F4DCC785
:103AF0008B39910511F00C94CD29EAC48C3C9105C9
:103B000011F40C94D9256CF48B3C910511F00C94B4
:103B1000CD2963E5E62E62E0F62E0FE013E00C946B
:103B2000CA258D3C910511F40C944E268E3C9105CE
:103B300011F00C94CD2943E5C42E42E0D42E51EC73
:103B4000E52E5CE0F52E10E00C94C126803941E0B2
:103B5000940711F40C94902984F58C32A1E09A0713
:103B600011F40C945A288CF48D3D910511F40C94A9
:103B7000C227823E910511F40C9431288C3D9105A9
:103B800011F00C94CD290C94B5278E32E1E09E07FC
:103B900011F40C94232914F40C9483288F3221E01F
:103BA000920711F40C9477298336914011F00C940C
:103BB000CD29E6E6F8E10C947D29863F41E09407A3
:103BC00011F40C94A92904F58C3AA1E09A0711F498
:103BD0000C94D3264CF48A39914011F00C94CD29E1
:103BE0000E94F8810C94162A843FF1E09F0731F17E
:103BF000853F914011F00C94CD290E94167780E00A
:103C00000E9458730C94162A8B3833E0930711F4F2
:103C10000C94162A3CF4873F914011F40C94AC2983
:103C20000C94CD29803AA3E09A0709F474C2873E28
:103C3000934011F40C94B8290C94CD29E6E6F8E1F0
:103C40000C949629E5E9F8E10C94D626E6E8F4E030
:103C5000EEC5A0907F12B090801280E50E94AAB1BC
:103C6000882359F00E94EEB06B017C0111E0672BB4
:103C7000682B692B31F410E004C010E0C12CD12C6A
:103C8000760183E50E94AAB1882311F40C945A2B83
:103C90000E942EB120E030E04AE754E40E9402CFB7
:103CA0000E94FAD36B017C0111110BC0672B682BAA
:103CB000692B39F4A114B10421F0F501808181113F
:103CC00002C010E001C011E00E946870112329F0C9
:103CD00061E0C5010E94BD9505C060E080E692E00C
:103CE0000E94839583E08093A00881E08093840EF6
:103CF000C114D104E104F104B1F00E943A8FC60E60
:103D0000D71EE81EF91E0E943A8FDC01CB018C19E8
:103D10009D09AE09BF09B7FF0DC08091840E8111C6
:103D20000C945F2B07C08091840E882319F00E94A9
:103D3000264BF9CF0E946B4F1092840E0C94162ADA
:103D400084918F010F5F1F4F882321F00E94BCB127
:103D5000F801F6CF1092AF0C82E69AE00E94CD47B0
:103D60008BE1E2E6FAE0DE01159601900D928A956C
:103D7000E1F78091600A9091610A9C838B8381E6D0
:103D800092E09A83898340E050E0BE016F5F7F4FED
:103D900080E090E00E94556BCE0101960E94A54AFA
:103DA000ECE7F2E084918F010F5F1F4F882311F43D
:103DB0000C94162A0E94BCB1F801F4CF0E9453BEA5
:103DC0000C94162A1092320A1092330A0C94162A76
:103DD000803209F41082319680818111F9CF40E060
:103DE00061E080917F12909180120E94186E0C9475
:103DF000162A8091330A81112093320A0E94315B86
:103E00000C94162A8091330A882311F40C94162AF4
:103E100083E50E94AAB181110C94632B0C94162A9D
:103E200083E40E9461B1882309F450C0E9ECF2E018
:103E300084918F010F5F1F4F882321F00E94BCB136
:103E4000F801F6CF8091FD0B811103C0ECE9F2E09F
:103E500012C0BE016F5F7F4F8AEF9BE00E94CF8050
:103E60008E010F5F1F4FD8018D918D01882349F17D
:103E70000E94BCB1F8CF84918F010F5F1F4F882340
:103E800001F10E94BCB1F801F6CF27E4C22E23E075
:103E9000D22EE12CF12C20E08091160890E00E2C1F
:103EA00002C0959587950A94E2F780FDA6C2EFEFD0
:103EB000EE1AFE0AF2E0CF0ED11C35E0E316F10453
:103EC00059F78AE00E94BCB10C94162A8091330AFB
:103ED000882339F08091320A882319F0E6EAF2E06B
:103EE00003C0E8EBF2E028C084918F010F5F1F4F01
:103EF000882321F00E94BCB1F801F6CF6091AB0C91
:103F00007091AC0C8091AD0C9091AE0C4AE00E9487
:103F100061B48FE20E94BCB16091A70C7091A80CB3
:103F20008091A90C9091AA0C4AE00E9461B48AE0A9
:103F30000E94BCB10C94162A84918F010F5F1F4F11
:103F4000882311F40C94162A0E94BCB1F801F4CF16
:103F500040E060E080917F12909180120E94186E84
:103F60000C94162A8091330A882311F40C94162A93
:103F70008AEF9BE00E94B47A8AEF9BE00E94038163
:103F80001092310A1092300A8091330A882311F47A
:103F90000C94162A00917F12109180121092320A0E
:103FA0008091FD0B882321F08AEF9BE00E94038122
:103FB000B801CE0180960E945C6D8C01892B11F4B2
:103FC0000C94162A68A179A16115710511F06C5F36
:103FD0007F4F19821C8222E0A801CE0101960E9427
:103FE0000B81811102C0F12C14C0CE0101960E94F8
:103FF00042698823C1F361E0CE0101960E94AC467C
:10400000009789F325EEFC0120831C820E94C5786D
:10401000F82ECE0101960E94B6B1F11003C0E6EE73
:10402000F2E022C0E8EDF2E084917F012FEFE21A86
:10403000F20A882321F00E94BCB1F701F5CFD80124
:104040008D918D01882319F00E94BCB1F8CF8AE0D0
:104050000E94BCB11092AB0C1092AC0C1092AD0C43
:104060001092AE0C0C94162A84917F01BFEFEB1ACC
:10407000FB0A882321F00E94BCB1F701F5CFF801BB
:1040800081918F01882319F00E94BCB1F8CF8EE294
:104090000E94BCB10C94162A8091320A81110E94B0
:1040A00068708091330A882311F40C94162A80E5F5
:1040B0000E94AAB1882319F00E941FB103C080E5B5
:1040C0000E9461B1182F482F61E080917F1290917A
:1040D00080120E94186E83E50E94AAB1882381F0A5
:1040E0000E94FEB0AB01BC014093AB0C5093AC0CF2
:1040F0006093AD0C7093AE0C8AEF9BE00E94E67A61
:104100008091330A882319F081E08093320A1111DB
:104110000C94162A73CE80917F129091801221E028
:104120002093310A40E060E00E94186E0C94162A39
:104130000E94E25A7B018C0120E831E541E050E029
:104140000E9475D2C9016DE671E00E9475D54B01E0
:104150005C01C801B70120E13EE040E050E00E9470
:1041600075D2CA01B90128E130E040E050E00E9478
:1041700075D2762E672EC62ED72E3CE3232E312CF9
:10418000412C512CC801B701A20191010E9475D2A6
:10419000F62EE72ECA01B901A20191010E9475D243
:1041A000CB018E010F5F1F4F8114910499F0EF92A4
:1041B000FF927F936F936F927F92BF92AF929F9285
:1041C0008F9286E293E09F938F931F930F930E94A9
:1041D00037CE13C0A114B104B1F0EF92FF927F93D8
:1041E0006F936F927F92BF92AF9286E193E09F931D
:1041F0008F931F930F930E9437CE0FB6F894DEBFB4
:104200000FBECDBF30C0CD2879F0EF92FF927F93E3
:104210006F936F927F928AE093E09F938F931F93A7
:104220000F930E9437CEE9CF892B69F0EF92FF926E
:104230007F936F9382E093E09F938F931F930F93ED
:104240000E9437CEDACFEF92FF928EEF92E09F93EB
:104250008F931F930F930E9437CE0F900F900F9064
:104260000F900F900F9060E0C8010E94BD95E5E9A6
:10427000F8E184917F01BFEFEB1AFB0A882321F05C
:104280000E94BCB1F701F5CFB8018AE393E00E9428
:10429000A6448AE00E94BCB10C94162A83E50E94D1
:1042A000AAB1882311F40C94162A0E940EB1E82EAC
:1042B00080E50E94AAB1882339F00E940EB1182F20
:1042C00087FF03C00C94162A1DE089E40E94AAB15E
:1042D000882351F00E941FB181110C946F2DE8ECDE
:1042E000F5E085EF95E00AC089E40E9461B1F4CF62
:1042F00031968E179F0711F40C946F2D2491121391
:10430000F7CF0C94442D0E94535B0C94162A0E9404
:10431000685B0C94162A88E690E00E947A8A8111E4
:104320000C94162A8091160883FF02C00C94162A5A
:1043300083E50E94AAB18823C9F00E942EB10E9491
:10434000F5D37093490F6093480F80E00E94E359C2
:104350000E942EB120E030E046E952E40E949DCE5A
:10436000181624F00E94685B0E946B4F0E94C144A3
:104370000C94162A8EE40E94AAB1882311F40C949E
:10438000162A0E94FEB060938E0970938F09809365
:104390009009909391090C94162A83E50E9461B1CB
:1043A000882359F083E50E94AAB1882319F00E945E
:1043B0000EB101C080E080931608E5E9F8E1849130
:1043C0008F010F5F1F4F811103C0E5E5F3E004C0CB
:1043D0000E94BCB1F801F3CF84918F010F5F1F4F92
:1043E000882321F00E94BCB1F801F6CF8091160815
:1043F00081114BCDE1E5F3E018C0BB24B394B20EBC
:10440000222319F08CE20E94BCB1F60185919491AF
:10441000FC0184918F010F5F1F4F882321F00E94C0
:10442000BCB1F801F6CF2B2D42CD84918F010F5FE7
:104430001F4F882309F445CD0E94BCB1F801F5CF88
:1044400010922F02F3C783E50E94AAB1811103C025
:10445000E5E9F8E10BC00E940EB18D3318F48093AA
:104460001402E4C78CE380931402E0C784918F01A7
:104470000F5F1F4F882321F00E94BCB1F801F6CFD7
:104480004091140250E060E070E085E693E00E9405
:1044900053448AE00E94BCB1C9C789E690E00E94FB
:1044A0007A8A811111C0ECE6F3E084918F010F5FED
:1044B0001F4F882321F00E94BCB1F801F6CF0E9463
:1044C000DD588AE00E94BCB11092A0080C94842DA3
:1044D00083E50E94AAB1882309F4A8C70E940EB1FF
:1044E000182F8D3308F01CE31093AD080E943A8F0B
:1044F0006B017C01212F30E0A8EEB3E00E94A1D235
:10450000C60ED71EE81EF91EC092A908D092AA08AE
:10451000E092AB08F092AC0889C70E94BC8A86C7BB
:104520008091160883FD82C783E50E94AAB1882383
:1045300009F47CC70E942EB10E94F5D3663971053B
:1045400014F066E970E07093470F6093460F0E9485
:1045500097596CC78091160883FD68C783E50E9450
:10456000AAB125968FAF259781110C94742B82E503
:104570000E94AAB181110C94742B58C780E50E9447
:10458000AAB1811106C083E50E94AAB1882359F01F
:1045900005C00E940EB1811149C7F5CF0E94FEB03F
:1045A0006F3F710510F06FEF70E070934003609300
:1045B0003F033CC780E50E94AAB1811105C010925B
:1045C000400310923F0332C70E94FEB0672B09F0F0
:1045D0002DC7F5CF0E947D5B0E94A570109240030D
:1045E00010923F0368EE73E080E090E00E94C79471
:1045F00060E081E993E00E94839518C71092D10290
:1046000015C781E08093D10211C783E50E94AAB14A
:10461000882399F00E942EB120E030E04AE754E46C
:104620000E9402CF0E94FAD3609315027093160283
:104630008093170290931802F9C688E50E9461B131
:1046400081110C94142D89E50E9461B181110C94A3
:10465000142D8AE50E9461B181110C94142D85E41A
:104660000E9461B181110C94142D0E94A570DEC6C8
:1046700083E50E9461B1882309F4D8C60E942EB157
:1046800020E030E04AE754E40E9402CF0E94FAD3CF
:104690006093A5087093A6088093A7089093A80834
:1046A000C5C613E5C12E12E0D12E07E1E02E08E0C9
:1046B000F02E10E0F60181916F010E9461B1882314
:1046C00009F46EC0133009F063C00E942EB14B0193
:1046D0005C0120E030E040EA51E40E949DCE87FF7B
:1046E0004EC0A50194016091230870912408809127
:1046F0002508909126080E948DD32B013C019B0137
:10470000AC016091EB027091EC028091ED0290910E
:10471000EE020E9402CF6093EB027093EC02809352
:10472000ED029093EE02A301920160911B03709140
:104730001C0380911D0390911E030E9402CF609381
:104740001B0370931C0380931D0390931E036091C1
:10475000FB027091FC028091FD029091FE020E948A
:10476000A1CEA30192010E9402CF0E94FAD36093CE
:10477000FB027093FC028093FD029093FE028092F4
:10478000230890922408A0922508B092260808C019
:104790000E942EB1D7016D937D938D939C931397B7
:1047A0001F5FB4E0EB0EF11C143009F083CF0E94C0
:1047B00082463CC60E94687083E50E94AAB18823A5
:1047C00009F48DC80E94FEB06230710509F087C8F7
:1047D0000E94324F8BE50E94BCB1609194087091A9
:1047E0009508809196089091970842E00E94E6B45F
:1047F000409198085091990860919A0870919B088F
:1048000084EA93E00E94704440919C0850919D0876
:1048100060919E0870919F0881EA93E00E94704425
:104820008DE50E94BCB18AE00E94BCB1FFC58491B5
:104830008F010F5F1F4F882321F00E94BCB1F80148
:10484000F6CF60E086E794E00E945F8660E08FE646
:1048500094E00E945F8661E084E694E00E945F86B7
:1048600061E084E594E00E945F8660E08BE494E080
:104870000E945F8661E081E494E00E945F8660E0D0
:1048800087E394E00E945F8660E08FE294E00E94FC
:104890005F8660E081E294E00E945F8660E083E1F1
:1048A00094E00E945F8660E084E094E00E945F866E
:1048B00060E086EF93E00E945F8660E080EE93E028
:1048C0000E945F8660E08FEC93E00E945F8660E06C
:1048D0008AEB93E00E945F8661E087EA93E00E94A2
:1048E0005F86A4C580917F1290918012FC01208187
:1048F000211103C00E946B4F99C560E00E94BD95D5
:1049000095C500917F121091801283E0D12C40E078
:104910008150E9F0D8019C91292F2B7F2134C1F7D8
:1049200011962C912133A1F7913421F0953421F483
:1049300041E002C0DD24D39498012E5F3F4F8901EE
:104940002F5F3F4FF80190819032C9F3E1CF4423AC
:1049500069F0E5E9F8E184917F012FEFE21AF20AAC
:10496000882321F00E94BCB1F701F5CFDD2069F06A
:10497000ECE4F5E084917F013FEFE31AF30A88232A
:1049800021F00E94BCB1F701F5CFD8018D918D01C6
:10499000882309F496CA0E94BCB1F7CF0E942D73F8
:1049A00045C581E08093BF0C8093BE0C3FC510923B
:1049B000BF0C1092BE0C3AC583E50E94AAB18823B1
:1049C00019F00E94FEB002C060E070E08B01112778
:1049D00002301105D4F0E6E6F8E184918F010F5F13
:1049E0001F4F811103C0E0E5F5E004C00E94BCB197
:1049F000F801F3CF84918F010F5F1F4F882309F4D3
:104A000015C50E94BCB1F801F5CF88E40E94AAB197
:104A10008823A9F00E94FEB0663971053CF065302C
:104A2000B1E07B072CF064E071E002C066E970E061
:104A3000F801EE0FFF1FE458F64F7183608386E4A0
:104A40000E94AAB18823A9F00E94FEB0F801EE0FDF
:104A5000FF1FE058F64F718360836F3F710519F0B7
:104A600014F06FEF70E077FF02C060E070E07183D8
:104A7000608382E40E94AAB1882309F4D7C40E940B
:104A8000FEB06530710534F0683871052CF067E8C8
:104A900070E002C065E070E0000F111FF801E858F7
:104AA000F64F71836083C2C488EC90E00E947A8ADA
:104AB0008111BCC484E40E9461B1882309F441C01F
:104AC0000E942EB16B017C0111E020E030E0A901D1
:104AD0000E949DCE811101C010E01093950E20E040
:104AE00030E0A901C701B6010E949DCE882349F19B
:104AF0000E942EB1E091170924E0E29FF0011124F9
:104B0000EF56F14F608371838283938320E030E01E
:104B1000A9016091910E7091920E8091930E9091E7
:104B2000940E0E949DCE81110CC08AE999E9A9EDED
:104B3000BFE38093910E9093920EA093930EB09347
:104B4000940E0E94D06F72C473E5E72E72E0F72EC8
:104B50000FE11FE0D7018D917D010E9461B1882393
:104B600049F00E942EB10E94FAD3F801608371834C
:104B7000828393830C5F1F4FFFE00F321F0751F7B3
:104B80000E94F14453C40C5F1F4FF3E00F311F0725
:104B900009F44CC4D7018D917D010E9461B1882335
:104BA00091F30E942EB1F801608371838283938315
:104BB000EACF83E50E94AAB18823A1F00E942EB11A
:104BC00060930703709308038093090390930A038B
:104BD000609303037093040380930503909306038B
:104BE00010E001C011E080E50E94AAB1882359F0CD
:104BF0000E942EB16093070370930803809309030A
:104C000090930A0310E082E50E94AAB1882359F02C
:104C10000E942EB160930B0370930C0380930D03DD
:104C200090930E0310E084E50E94AAB1882359F006
:104C30000E942EB1609303037093040380930503D5
:104C400090930603F3C3112309F4F0C340910703C3
:104C5000509108036091090370910A0388E795E079
:104C60000E94704440910B0350910C0360910D031E
:104C700070910E0385E795E00E9470444091030314
:104C800050910403609105037091060382E795E05B
:104C90000E9470448AE00E94BCB1C8C381E50E94B2
:104CA00061B1882351F00E94EEB0609323037093AA
:104CB0002403809325039093260383E50E9461B12A
:104CC000882351F00E942EB160933B0370933C0304
:104CD00080933D0390933E0384E50E9461B1882355
:104CE00051F00E942EB16093370370933803809384
:104CF000390390933A0388E50E9461B1882351F00B
:104D00000E942EB16093DF027093E0028093E10273
:104D10009093E20289E50E9461B1882351F00E94DC
:104D20002EB16093E3027093E4028093E5029093C6
:104D3000E6028AE50E9461B1882351F00E942EB1FB
:104D40006093E7027093E8028093E9029093EA028D
:104D500085E40E9461B1882309F468C30E942EB1E2
:104D60006093EB027093EC028093ED029093EE025D
:104D70005DC31F5FF4E0EF0EF11C133011F40C94CF
:104D80006F1CD6018D916D010E9461B1882389F35A
:104D90000E942EB1F7016083718382839383812FF8
:104DA0000E94B088E6CF0E94F08840C384918F01B2
:104DB0000F5F1F4F882321F00E94BCB1F801F6CF8E
:104DC00083E50E9461B1882321F00E941FB1809386
:104DD0004202E0EBF5E084918F010F5F1F4F8823C3
:104DE00021F00E94BCB1F801F6CF809142028823E5
:104DF00019F0E8EAF5E002C0ECEAF5E084918F01F1
:104E00000F5F1F4F811103C0E0EAF5E004C00E946C
:104E1000BCB1F801F3CF84918F010F5F1F4F88233E
:104E200021F00E94BCB1F801F6CF20919A0E30918A
:104E30009B0E40919C0E50919D0E6091A60E70911C
:104E4000A70E8091A80E9091A90E0E94B1D2AB013D
:104E5000BC018EE995E00E94704420919E0E309135
:104E60009F0E4091A00E5091A10E6091AA0E7091DC
:104E7000AB0E8091AC0E9091AD0E0E94B1D2AB0101
:104E8000BC018BE995E00E9470442091A20E309104
:104E9000A30E4091A40E5091A50E6091AE0E70919C
:104EA000AF0E8091B00E9091B10E0E94B1D2AB01C5
:104EB000BC0188E995E00E947044E0E9F5E0849146
:104EC0008F010F5F1F4F882321F00E94BCB1F801B2
:104ED000F6CF20919A0E30919B0E40919C0E5091EE
:104EE0009D0E609136027091370280913802909148
:104EF00039020E94B1D2AB01BC018EE895E00E945C
:104F0000704420919E0E30919F0E4091A00E5091C2
:104F1000A10E60913A0270913B0280913C02909107
:104F20003D020E94B1D2AB01BC018BE895E00E942A
:104F300070442091A20E3091A30E4091A40E509186
:104F4000A50E60913E0270913F02809140029091C7
:104F500041020E94B1D2AB01BC0188E895E00E94F9
:104F600070448AE00E94BCB161C283E50E94AAB18C
:104F7000882309F45BC20E94FEB0709335026093EF
:104F8000340254C28DED90E00E947A8A81114EC2A3
:104F900083E50E94AAB1811103C0E5E9F8E13BC0B5
:104FA0000091170910E00E94FEB0000F111FF801D8
:104FB000EE5CFD4F718360838091170990E08C0156
:104FC000000F111F000F111F98012F5F3D4F790136
:104FD000880F991FFC01EE5CFD4F60817181072EE7
:104FE000000C880B990B0E94A3CE2AE037ED43E218
:104FF0005CE30E9402CFF801EA56F14F2081318133
:10500000428153810E9402CFD7016D937D938D938E
:105010009C9313970BC284918F010F5F1F4F8823BE
:1050200021F00E94BCB1F801F6CF85E40E94BCB12A
:1050300080911709805D0E94BCB1E0911709F0E0F2
:10504000EE0FFF1FEE5CFD4F6081718180EC95E0FB
:105050000E948D4485E20E94BCB18AE00E94BCB1EE
:10506000E5C180E50E9461B1882309F4DFC10E9497
:10507000FEB06B017C0183E50E94AAB1882321F078
:105080000E94FEB08B0102C00FEF1FEFC801019616
:10509000039708F0CBC1D7FCC9C18C2DE8ECF5E033
:1050A0009491891709F4F0C43196B5E0E53FFB0708
:1050B000B9F7EDC483E50E94AAB1882319F00E94D4
:1050C000FEB002C064E071E079A368A380E50E94AD
:1050D000AAB1882339F00E94FEB06938E3E17E0767
:1050E00030F402C068EE73E07A83698304C088E814
:1050F00093E19A838983BE01605E7F4FCE01019662
:105100000E9495BF93C185E40E94AAB1811110C08D
:1051100080E50E9461B1882391F00E942EB16093D6
:105120006B0970936C0980936D0990936E0907C0A9
:105130000E940EB1882361F3E6E6F8E171C089E4CC
:105140000E9461B1882381F00E942EB12CEA35ECD7
:1051500047E25EE30E9402CF609373097093740983
:10516000809375099093760984E40E9461B1882345
:1051700081F00E942EB12CEA35EC47E25EE30E94FA
:105180008DD360936F097093700980937109909328
:105190007209E5E9F8E184918F010F5F1F4F8823C1
:1051A00021F00E94BCB1F801F6CF40916B095091FB
:1051B0006C0960916D0970916E098DEF95E00E9408
:1051C00070442CEA35EC47E25EE36091730970911C
:1051D000740980917509909176090E948DD3AB0175
:1051E000BC0189EF95E00E9470442CEA35EC47E25F
:1051F0005EE360916F0970917009809171099091DF
:1052000072090E9402CFAB01BC0185EF95E00E94BC
:1052100070448AE00E94BCB109C10E94BCB1F8018F
:1052200084918F010F5F1F4F8111F7CFE1E0F6E00E
:1052300084918F010F5F1F4F882309F4F7C00E94EC
:10524000BCB1F801F5CF83E50E9461B1182F882326
:1052500071F00E942EB10E94F5D370930602609304
:10526000050221E0672B09F020E02093410380E54F
:105270000E9461B1882359F0209105023091060205
:10528000232B11F00E941FB180934103CFC0111155
:10529000CDC0E5E9F8E184918F010F5F1F4F8823AE
:1052A00021F00E94BCB1F801F6CF80914103882320
:1052B00019F061E972E002C064E972E088E296E008
:1052C0000E94A644609105027091060287E196E073
:1052D0000E948D44E3E1F6E084918F010F5F1F4F40
:1052E000882309F4A3C00E94BCB1F801F5CF0E9445
:1052F00031829CC00E94BCB1F80184918F010F5F84
:105300001F4F8111F7CFEBE3F6E084918F010F5F20
:105310001F4F882309F48AC00E94BCB1F801F5CF61
:105320000E94687083C00E94BCB1F80184918F0113
:105330000F5F1F4F8111F7CFEAE4F6E084918F01F0
:105340000F5F1F4F882309F471C00E94BCB1F801A0
:10535000F5CF0E9416776AC083E50E9461B1882369
:1053600021F00E941FB191E089270E9458735EC00E
:1053700081E0809319021092DE0283E50E94AAB1B7
:10538000882339F00E941FB1811150C00E94C9BF0B
:105390004DC083E50E9461B1F7CF0E94913B46C0AA
:1053A000F09081120E946870FF2029F1E5E9F8E190
:1053B00084918F010F5F1F4F882321F00E94BCB1A1
:1053C000F801F6CF84E50E94BCB16F2D70E080E05B
:1053D00090E04AE00E9461B480E20E94BCB1EDE638
:1053E000F6E084918F010F5F1F4F8823F9F00E9430
:1053F000BCB1F801F6CF1092780EE5E9F8E184919E
:105400008F010F5F1F4F882321F00E94BCB1F8016C
:10541000F6CF6091780E70E08BE596E00E948D44A7
:105420008AE00E94BCB102C00E94913B1092A00889
:105430000E944E4F69C30E9460870E941E4EF6CFA5
:105440000E9468708091100290911102A091120246
:10545000B09113028093D5029093D602A093D70205
:10546000B093D80280913402909135029093D40287
:105470008093D30284E690E09093350280933402C7
:1054800011E01093BF0C88E50E9461B1282E89E5D8
:105490000E9461B1082F8AE50E9461B1382E211067
:1054A00004C0011104C0132505C0011102C010E0A1
:1054B00001C0132D80E1EDECFCE0AAEBB8E0019017
:1054C0000D928A95E1F782E50E94AAB1882369F0DE
:1054D0000E942EB16B017C0120E030E0A9010E9406
:1054E0009DCE882309F4ACC006C0C12CD12C70EA33
:1054F000E72E70E4F72E111105C0211003C0002320
:1055000009F4AFC0C092C208D092C308E092C408A8
:10551000F092C508A70196016091D50C7091D60C48
:105520008091D70C9091D80C0E949DCE87FF88C0A7
:105530002091D10C3091D20C4091D30C5091D40CCD
:105540002CA73DA74EA75FA74090CD0C5090CE0C46
:105550006090CF0C7090D00C80911002909111024D
:10556000A0911202B091130288AB99ABAAABBBAB6E
:10557000EEE3F0E185909590A590B49080921002B2
:1055800090921102A0921202B0921302C092D50C16
:10559000D092D60CE092D70CF092D80C0E9484885E
:1055A00085E595E5A5E0B3E48093100290931102A0
:1055B000A0931202B09313024092CD0C5092CE0CE5
:1055C0006092CF0C7092D00C2CA53DA54EA55FA586
:1055D0002093D10C3093D20C4093D30C5093D40C25
:1055E0000E948488A70196016091D50C7091D60C19
:1055F0008091D70C9091D80C0E94D7D4181694F4AF
:105600008092100290921102A0921202B0921302A4
:10561000C092D50CD092D60CE092D70CF092D80C58
:105620000E9484880E94687088A999A9AAA9BBA928
:105630008093100290931102A0931202B093130270
:10564000111105C0211003C0011106C00AC080E07D
:105650000E94A4491123C1F381E00E94A4491111C1
:1056600002C0332019F082E00E94A4490E94E4B0F5
:105670008091BE0C8093BF0C8091D5029091D60290
:10568000A091D702B091D80280931002909311029A
:10569000A0931202B09313028091D3029091D4028E
:1056A000909335028093340283E0809300020E943D
:1056B0009686BCCE11110C94611E0C945A1E0E9449
:1056C000264B0C94831E0E94FEB0AB01BC0140939C
:1056D000AB0C5093AC0C6093AD0C7093AE0C8AEF96
:1056E0009BE00E94E67AA2CE0E942EB10E94F5D3E2
:1056F000663971050CF095C17093470F6093460FA2
:105700000E9497590E942EB120E030E040EA50E418
:105710000E94D7D4181614F40E94315B6091460F92
:105720007091470F072E000C880B990B0E94A3CE97
:105730002091D5083091D6084091D7085091D808CB
:105740000E94D7D418161CF482E893E002C083E7C5
:1057500093E060E00E94839581E080932F02809126
:10576000780E8093170918AE19AE1AAE1BAE689664
:105770001CAE1DAE1EAE1FAE68971CAE29961FAEA6
:1057800029974CE32D964FAF2D975CE169965FAF5B
:10579000699786E461968FAF6197C12CD12C80E820
:1057A000E82E9FEBF92E412C512C32016091460FCF
:1057B0007091470F072E000C880B990B0E94A3CE07
:1057C000162F072F8CA798AB9601A7010E949DCE9C
:1057D000882319F12091D5083091D6084091D70837
:1057E0005091D80825969FAD2597612F702F8CA5D5
:1057F000911108C098A90E949DCE881F8827881FF4
:105800008CAF11C098A90E949DCE87FF0BC08091DC
:105810002F02882309F40ACE6DC81C2D0D2DECA68D
:10582000F8AA01C01CAE0E943A8F6B017C01DC011A
:10583000CB0168962CAD3DAD4EAD5FAD6897821B38
:10584000930BA40BB50BB7FD3DC0D701C601885122
:105850009C4FAF4FBF4F68968CAF9DAFAEAFBFAF01
:1058600068970E94DD58EFE6F3E084915F019FEFB7
:10587000A91AB90A882321F00E94BCB1F501F5CF1D
:105880004114510461047104B9F0D301C201805F75
:10589000984DAF4FBF4FBC01CD016C197D098E09EA
:1058A0009F0928EE33E040E050E00E9475D2CA0123
:1058B000B9010E94CCB403C08FE30E94BCB18AE05E
:1058C0000E94BCB10E94264B0E943A8F6093A108AF
:1058D0007093A2088093A3089093A4082090D50801
:1058E0003090D608A091D708ACABB091D8082196DB
:1058F000BFAF21979101AD01612F702F8CA598A9A1
:105900000E94B0D24B015C0120E030E0A9010E946E
:10591000D7D487FF04C0B7FAB094B7F8B094411455
:1059200051046104710459F420E030E040E85FE381
:10593000C501B4010E949DCE87FF0DC00AC020E0C2
:1059400030E040E450E4C501B4010E94D7D41816F9
:1059500014F426013701ECADEE2309F446C028AD5E
:1059600039AD4AAD5BAD211531054105510541F019
:10597000D701C601821B930BA40BB50BB7FD35C035
:1059800091014CA921965FAD219729966FAD29977A
:105990002D967FAD2D9769968FAD699761969FADD6
:1059A00061970E94B0D220E030E040EC5FE30E94BB
:1059B0009DCE87FD2CCFD701C601805A9541AF4FB0
:1059C000BF4F88AF99AFAAAFBBAF29962FAE29972B
:1059D0002D963FAE2D979CA969969FAF699721960A
:1059E000AFAD21976196AFAF619780912F02882369
:1059F00009F40DCF411451046104710429F4C12E3E
:105A0000D02EECA4F8A8D2CEB0E1CB1AB7E2DB0AD4
:105A1000E108F108C418D508E608F708F7FEF7CE44
:105A2000EECF66E970E068CE0E94687088E50E945B
:105A300061B1882331F05F9A8091C00C8E7F809392
:105A4000C00C89E50E9461B1882331F08A9A809167
:105A5000C00C8D7F8093C00C8AE50E9461B18823C1
:105A600059F08091080180958170809306018091A2
:105A7000C00C8B7F8093C00C85E40E9461B18823A9
:105A800009F4D4CC129AD2CC0E948FC2CFCC0E94FF
:105A90006870BC2C60E08C2D0E94848D0F3FFFEF5E
:105AA0001F0759F48C2D0E942E8D31E020E0892BA8
:105AB00009F030E0032F122F05C00130110561F409
:105AC00001E010E08B2D0E942E8D8017910709F4C4
:105AD000ADCC0E94264BF6CF00E010E0F3CF61E0A2
